:100000000C942A000C94E2160C9447000C944700C0
:100010000C9447000C9447000C9447000C94470044
:100020000C9447000C94C5160C9447000C944700A0
:100030000C9447000C94F90B0C9447000C94470067
:100040000C9447000C9447000C9447000C94470014
:100050000C94470011241FBECFE5D8E0DEBFCDBF12
:1000600011E0A8E6B1E001C01D92AF37B107E1F79A
:1000700011E0A0E6B0E0E0E1F5E302C005900D92EA
:10008000A836B107D9F70E9412170C94861A0C945F
:100090000000EF92FF920F931F937B018C0120E0F1
:1000A00030E040E05FE40E94F50388238CF0C80153
:1000B000B70120E030E040E05FE40E94C1010E940F
:1000C00055049B01AC01205030404040504806C0D0
:1000D000C801B7010E9455049B01AC01B901CA01D6
:1000E0001F910F91FF90EF900895A0E0B0E0EBE733
:1000F000F0E00C944F1ADC012B01FA019C91923034
:1001000008F439C1EB018881823008F433C194309E
:1001100069F4843009F02FC111969C91119789815F
:10012000981709F428C1A0E6B0E025C1843009F48D
:1001300021C18230A9F4923009F01DC19A01AD01AC
:1001400088E0EA010990AE01E90109929E0181501F
:10015000C1F7E201898111969C918923818308C1AD
:10016000923009F407C112962D903C901397EB0141
:100170008A819B811496AD90BD90CD90DC901797AD
:10018000EC80FD800E811F819101281B390BB90184
:1001900037FF04C066277727621B730B6032710537
:1001A0000CF061C0121613066CF537014801062EDB
:1001B00004C096948794779467940A94D2F721E0C8
:1001C00030E040E050E004C0220F331F441F551FB1
:1001D0006A95D2F721503040404050402E213F21B7
:1001E00040235123211531054105510521F021E01E
:1001F00030E040E050E079018A01E628F72808293C
:1002000019293CC0232BD1F1260E371E350146019A
:10021000062E04C096948794779467940A94D2F734
:1002200021E030E040E050E004C0220F331F441FC3
:10023000551F6A95D2F721503040404050402A2146
:100240003B214C215D21211531054105510521F04E
:1002500021E030E040E050E059016A01A628B728CB
:10026000C828D9280BC0821593052CF01C01AA249C
:10027000BB24650103C0EE24FF24870111969C91E5
:10028000D20111968C91981709F445C0992339F041
:10029000A80197012A193B094C095D0906C0A6016E
:1002A00095012E193F09400B510B57FD08C01182D3
:1002B0003382228224833583468357831DC081E0A5
:1002C00081833382228288279927DC01821B930B4A
:1002D000A40BB50B84839583A683B7830DC0220F2F
:1002E000331F441F551F24833583468357838281E0
:1002F000938101979383828324813581468157813D
:10030000DA01C9010197A109B1098F5F9F4FAF4F72
:10031000BF4328F30BC0918333822282EA0CFB1C7B
:100320000C1D1D1DE482F5820683178383E0808304
:10033000248135814681578157FF1AC0C901AA27F8
:1003400097FDA095BA2F81709070A070B0705695EF
:10035000479537952795822B932BA42BB52B848318
:100360009583A683B7838281938101969383828349
:10037000DF0101C0D201CD01CDB7DEB7E2E10C94BF
:100380006B1AA0E2B0E0E7ECF1E00C945B1A698331
:100390007A838B839C832D833E834F835887E9E048
:1003A000EE2EF12CEC0EFD1ECE010196B7010E943F
:1003B00046068E010F5E1F4FCE010596B8010E94C2
:1003C00046068A8991E089278A8BC701B801AE0168
:1003D000475E5F4F0E9475000E947105A096E6E09F
:1003E0000C94771AA0E2B0E0E8EFF1E00C945B1A0D
:1003F00069837A838B839C832D833E834F835887C5
:10040000F9E0EF2EF12CEC0EFD1ECE010196B701A6
:100410000E9446068E010F5E1F4FCE010596B80161
:100420000E944606C701B801AE01475E5F4F0E94B9
:1004300075000E947105A096E6E00C94771AA0E280
:10044000B0E0E5E2F2E00C944F1A69837A838B8383
:100450009C832D833E834F835887CE010196BE0136
:10046000675F7F4F0E944606CE010596BE016F5E14
:100470007F4F0E9446069985923088F089898230A4
:10048000C8F0943019F4823051F404C0843029F457
:10049000923081F480E690E0C6C0923049F420E0CA
:1004A0009A858A89981321E02A87CE010996BBC0D4
:1004B000823049F420E09A858A89981321E02A8BBA
:1004C000CE014196B0C02D843E844F8458886D88FB
:1004D0007E888F88988CEE24FF248701AA24BB2471
:1004E000650140E050E060E070E0E0E0F0E0C10174
:1004F00081709070892BE9F0E60CF71C081D191D1E
:100500009A01AB012A0D3B1D4C1D5D1D80E090E062
:10051000A0E0B0E0E614F7040805190520F481E036
:1005200090E0A0E0B0E0BA01A901480F591F6A1F8E
:100530007B1FAA0CBB1CCC1CDD1C97FE08C081E0F5
:1005400090E0A0E0B0E0A82AB92ACA2ADB2A3196B6
:10055000E032F10549F0660C771C881C991C569412
:10056000479437942794C3CFFA85EA892B893C892D
:100570008B859C85280F391F2E5F3F4F17C0CA01FE
:1005800081709070892B61F016950795F794E79428
:1005900080E090E0A0E0B0E8E82AF92A0A2B1B2BC3
:1005A00076956795579547952F5F3F4F77FDE7CF36
:1005B0000CC0440F551F661F771F17FD4160EE0CDE
:1005C000FF1C001F111F21503040403090E05907A0
:1005D00090E0690790E4790760F32B8F3C8FDB0193
:1005E000CA018F779070A070B07080349105A1051A
:1005F000B10561F447FD0AC0E114F10401051105DC
:1006000029F0405C5F4F6F4F7F4F40781A8EFE1786
:1006100011F081E08A8F4D8F5E8F6F8F78A383E01A
:10062000898FCE0149960E947105A096E2E10C9453
:100630006B1AA8E1B0E0EFE1F3E00C94571A69837C
:100640007A838B839C832D833E834F835887B9E0C5
:10065000EB2EF12CEC0EFD1ECE010196B7010E948F
:1006600046068E010F5E1F4FCE010596B8010E940F
:1006700046062985223008F47EC03989323010F4CC
:10068000B8017CC08A859A8989278A87243011F02D
:10069000223031F4231709F06EC060E670E06EC0BE
:1006A000343039F41D861E861F86188A1C861B86E8
:1006B00004C0323021F484E08987B7015FC02B8504
:1006C0003C858B899C89281B390B3C872B87ED84C3
:1006D000FE840F851889AD88BE88CF88D88CEA142F
:1006E000FB040C051D0540F4EE0CFF1C001F111F40
:1006F000215030403C872B8720E030E040E050E044
:1007000080E090E0A0E0B0E460E070E0EA14FB0478
:100710000C051D0540F0282B392B4A2B5B2BEA18C2
:10072000FB080C091D09B695A79597958795EE0CC2
:10073000FF1C001F111F6F5F7F4F6F31710531F775
:10074000DA01C9018F779070A070B0708034910584
:10075000A105B10561F427FD0AC0E114F10401050A
:10076000110529F0205C3F4F4F4F5F4F20782D87B8
:100770003E874F87588BBE01675F7F4FCB010E943A
:1007800071056896EAE00C94731AA8E1B0E0EBEC0E
:10079000F3E00C945B1A69837A838B839C832D83AB
:1007A0003E834F83588789E0E82EF12CEC0EFD1E26
:1007B000CE010196B7010E9446068E010F5E1F4FC3
:1007C000CE010596B8010E9446068985823040F028
:1007D0008989823028F0C701B8010E94BE0601C095
:1007E0008FEF6896E6E00C94771AA8E1B0E0EBEFA3
:1007F000F3E00C945B1A69837A838B839C832D834B
:100800003E834F83588789E0E82EF12CEC0EFD1EC5
:10081000CE010196B7010E9446068E010F5E1F4F62
:10082000CE010596B8010E9446068985823040F0C7
:100830008989823028F0C701B8010E94BE0601C034
:100840008FEF6896E6E00C94771AA8E1B0E0EBE24F
:10085000F4E00C945B1A69837A838B839C832D83E9
:100860003E834F83588789E0E82EF12CEC0EFD1E65
:10087000CE010196B7010E9446068E010F5E1F4F02
:10088000CE010596B8010E9446068985823040F067
:100890008989823028F0C701B8010E94BE0601C0D4
:1008A00081E06896E6E00C94771AACE0B0E0EBE506
:1008B000F4E00C945F1A69837A838B839C83CE0166
:1008C0000196BE016B5F7F4F0E9446068D8182308C
:1008D00061F1823050F1843021F48E81882351F10E
:1008E0002EC02F81388537FD20C06E812F31310514
:1008F0001CF06623F9F023C08EE190E0821B930B7D
:1009000029853A854B855C8504C056954795379572
:1009100027958A95D2F76623B1F05095409530958A
:1009200021953F4F4F4F5F4F0EC020E030E040E039
:1009300050E009C02FEF3FEF4FEF5FE704C020E02A
:1009400030E040E050E8B901CA012C96E2E00C9496
:100950007B1AA8E0B0E0EFEAF4E00C94571A7B01B0
:100960008C01611571058105910519F482E0898377
:1009700060C083E089838EE1C82ED12CDC82CB82DB
:10098000ED82FE820F831887C801B7010E942205FD
:10099000FC013197F7FF3BC0222733272E1B3F0B6B
:1009A00057016801022E04C0D694C794B794A79447
:1009B0000A94D2F740E050E060E070E081E090E01F
:1009C000A0E0B0E004C0880F991FAA1FBB1F2A95A2
:1009D000D2F70197A109B1098E219F21A023B1234C
:1009E0000097A105B10521F041E050E060E070E022
:1009F0004A295B296C297D294D835E836F83788723
:100A00008EE190E08E1B9F0B9C838B8312C03097EE
:100A100081F00E2E04C0EE0CFF1C001F111F0A9463
:100A2000D2F7ED82FE820F831887CE1ADF0ADC82AE
:100A3000CB821A82CE0101960E9471052896EAE0C7
:100A40000C94731AEF92FF920F931F937B018C010A
:100A500080E0E81680E0F80681E0080780E01807EB
:100A600088F48FEFE816F1040105110531F028F044
:100A700088E090E0A0E0B0E017C080E090E0A0E067
:100A8000B0E012C080E0E81680E0F80680E00807D9
:100A900081E0180728F088E190E0A0E0B0E004C011
:100AA00080E190E0A0E0B0E020E230E040E050E003
:100AB000281B390B4A0B5B0B04C016950795F7945E
:100AC000E7948A95D2F7F701E859FF4F8081281BF8
:100AD000310941095109C9011F910F91FF90EF9010
:100AE0000895DF92EF92FF920F931F93FC01E48031
:100AF000F58006811781D1808081823048F480E0C2
:100B000090E0A0E1B0E0E82AF92A0A2B1B2BA5C04F
:100B1000843009F49FC0823021F4EE24FF24870141
:100B200005C0E114F1040105110519F4E0E0F0E05D
:100B300096C0628173819FEF623879070CF05BC0C9
:100B400022E83FEF261B370B2A3131052CF020E03D
:100B500030E040E050E02AC0B801A701022E04C0F6
:100B600076956795579547950A94D2F781E090E07E
:100B7000A0E0B0E004C0880F991FAA1FBB1F2A95F0
:100B8000D2F70197A109B1098E219F21A023B1239A
:100B90000097A105B10521F081E090E0A0E0B0E070
:100BA0009A01AB01282B392B4A2B5B2BDA01C901A7
:100BB0008F779070A070B07080349105A105B10559
:100BC00039F427FF09C0205C3F4F4F4F5F4F04C0EF
:100BD000215C3F4F4F4F5F4FE0E0F0E02030A0E05E
:100BE0003A07A0E04A07A0E45A0710F0E1E0F0E07D
:100BF00079018A0127C06038710564F5FB01E1586D
:100C0000FF4FD801C7018F779070A070B07080340B
:100C10009105A105B10539F4E7FE0DC080E490E02F
:100C2000A0E0B0E004C08FE390E0A0E0B0E0E80E08
:100C3000F91E0A1F1B1F17FF05C016950795F7948D
:100C4000E794319687E016950795F794E7948A958F
:100C5000D1F705C0EE24FF248701EFEFF0E06E2FFF
:100C6000679566276795902F9F77D794DD24D79453
:100C70008E2F8695492F462B582F5D29B701CA0123
:100C80001F910F91FF90EF90DF900895FC01DB0121
:100C9000408151812281622F6F7770E0221F2227CD
:100CA000221F9381892F880F822B282F30E0991FD4
:100CB0009927991F11969C93119721153105A9F534
:100CC000411551056105710511F482E037C082E8D4
:100CD0009FEF13969C938E9312979A01AB0167E056
:100CE000220F331F441F551F6A95D1F783E08C9361
:100CF0000DC0220F331F441F551F12968D919C91DA
:100D00001397019713969C938E931297203080E04F
:100D1000380780E0480780E4580758F314962D936D
:100D20003D934D935C93179708952F3F310579F4C8
:100D3000411551056105710519F484E08C930895FE
:100D400064FF03C081E08C9312C01C9210C02F5727
:100D5000304013963C932E93129783E08C9387E058
:100D6000440F551F661F771F8A95D1F7706414963C
:100D70004D935D936D937C93179708951F93DC01BA
:100D8000FB019C91923008F447C08081823008F4C6
:100D900043C0943051F411961C91843099F58181AF
:100DA000682F70E0611B71093FC0843021F09230E0
:100DB00031F48230B9F18181882389F12DC01196F7
:100DC0001C9111978230F1F081811817D9F4129695
:100DD0002D913C911397828193818217930794F010
:100DE00028173907BCF014968D919D910D90BC91F8
:100DF000A02D2481358146815781281739074A075C
:100E00005B0718F4112341F00AC082179307A40767
:100E1000B50740F4112319F061E070E005C06FEFF1
:100E20007FEF02C060E070E0CB011F910895DF9377
:100E3000CF93CDB7DEB7A7E2B0E0E7E2F0E0808184
:100E400080668C93A6E2B0E0E6E2F0E080818768FD
:100E50008C93CF91DF910895DF93CF9300D0CDB7DE
:100E6000DEB78A83A7E2B0E0E7E2F0E08081982F66
:100E70008A818770892B8C93A6E2B0E0E6E2F0E0ED
:100E8000808180648C93E6E2F0E08081882F90E09E
:100E9000807490700097B9F7E5E2F0E08081898373
:100EA000A6E2B0E0E6E2F0E0808180618C93898187
:100EB0000F900F90CF91DF910895DF93CF93CDB72F
:100EC000DEB7E3E5F0E089E68083CF91DF91089516
:100ED000DF93CF9300D000D00F92CDB7DEB780E084
:100EE0000E942C07882F90E09D838C838C819D81AC
:100EF000CC01A0E0B0E0BC01CD010E94A904DC015E
:100F0000CB01BC01CD0126EF38E24CE950E40E9450
:100F10001F02DC01CB01BC01CD010E944900DC01B4
:100F2000CB019B838A838A819B812AE030E0B901CF
:100F30000E943B1ACB01898389818E3158F0A5E349
:100F4000B0E0E5E3F0E0808180648C9381E0809301
:100F5000750109C0A5E3B0E0E5E3F0E080818F7B97
:100F60008C93109275010F900F900F900F900F902F
:100F7000CF91DF910895DF93CF9300D00F92CDB73B
:100F8000DEB781E00E942C07882F90E09B838A8344
:100F90002A813B8184EF91E0AC01249FC001259F11
:100FA000900D349F900D1124892F99278695869551
:100FB00089838981843038F0ECE5F0E0108282E0AA
:100FC0008093740114C08981823058F08981843003
:100FD00040F4ECE5F0E080E4808381E080937401EC
:100FE00006C0ECE5F0E080E88083109274010F9079
:100FF0000F900F90CF91DF910895DF93CF93CDB7EE
:10100000DEB727970FB6F894DEBF0FBECDBF89833A
:101010006A834B838981843008F0EEC08A818830EE
:1010200008F0EAC08B81813009F06FC08981282FD8
:1010300030E03F832E838E819F818130910549F17D
:101040002E813F81223031052CF48E819F810097C3
:1010500061F0D2C02E813F812230310571F18E8145
:101060009F8183309105E9F1C7C0ABE3B0E0EBE3CA
:10107000F0E08081482F8A81282F30E081E090E0E5
:10108000022E02C0880F991F0A94E2F7842B8C93DA
:10109000B3C0A8E3B0E0E8E3F0E08081482F8A81A4
:1010A000282F30E081E090E0022E02C0880F991FC7
:1010B0000A94E2F7842B8C939FC0A5E3B0E0E5E3AC
:1010C000F0E08081482F8A81282F30E081E090E095
:1010D000022E02C0880F991F0A94E2F7842B8C938A
:1010E0008BC0A2E3B0E0E2E3F0E08081482F8A8188
:1010F000282F30E081E090E0022E02C0880F991F77
:101100000A94E2F7842B8C9377C08B81882309F0B3
:1011100073C08981282F30E03D832C838C819D8191
:101120008130910559F12C813D81223031052CF41B
:101130008C819D81009769F05FC02C813D812230B8
:10114000310589F18C819D818330910509F440C07E
:1011500053C0ABE3B0E0EBE3F0E08081482F8A813D
:10116000282F30E081E090E0022E02C0880F991F06
:101170000A94E2F7809584238C933EC0A8E3B0E004
:10118000E8E3F0E08081482F8A81282F30E081E079
:1011900090E0022E02C0880F991F0A94E2F7809512
:1011A00084238C9329C0A5E3B0E0E5E3F0E08081DF
:1011B000482F8A81282F30E081E090E0022E02C083
:1011C000880F991F0A94E2F7809584238C9314C0AA
:1011D000A2E3B0E0E2E3F0E08081482F8A81282F8B
:1011E00030E081E090E0022E02C0880F991F0A943F
:1011F000E2F7809584238C9327960FB6F894DEBF90
:101200000FBECDBFCF91DF910895DF93CF9300D074
:1012100000D00F92CDB7DEB78A836B838A8184308A
:1012200008F09EC08B81883008F09AC08A81282FF0
:1012300030E03D832C834C815D8141305105B1F11B
:101240008C819D818230910534F42C813D81211562
:10125000310571F087C04C815D814230510509F440
:1012600043C08C819D818330910509F45BC07AC0B5
:10127000E9E3F0E08081482F50E08B81282F30E0B7
:1012800081E090E002C0880F991F2A95E2F79A0149
:10129000282339238B81882F90E0A90102C055951E
:1012A00047958A95E2F7CA0189835CC0E6E3F0E0DE
:1012B0008081482F50E08B81282F30E081E090E042
:1012C00002C0880F991F2A95E2F79A012823392333
:1012D0008B81882F90E0A90102C0559547958A958A
:1012E000E2F7CA0189833EC0E3E3F0E08081482F42
:1012F00050E08B81282F30E081E090E002C0880F21
:10130000991F2A95E2F79A01282339238B81882F88
:1013100090E0A90102C0559547958A95E2F7CA0168
:10132000898320C0E0E3F0E08081482F50E08B818A
:10133000282F30E081E090E002C0880F991F2A95A5
:10134000E2F79A01282339238B81882F90E0A901A5
:1013500002C0559547958A95E2F7CA01898302C074
:101360008FEF898389810F900F900F900F900F90CE
:10137000CF91DF910895DF93CF93CDB7DEB7279755
:101380000FB6F894DEBF0FBECDBF89836A834B834F
:101390008981843008F0EEC08A81883008F0EAC084
:1013A0008B81813009F06FC08981282F30E03F8325
:1013B0002E838E819F818130910549F12E813F815D
:1013C000223031052CF48E819F81009761F0D2C0CC
:1013D0002E813F812230310571F18E819F818330D2
:1013E0009105E9F1C7C0AAE3B0E0EAE3F0E080814B
:1013F000482F8A81282F30E081E090E0022E02C041
:10140000880F991F0A94E2F7842B8C93B3C0A7E34B
:10141000B0E0E7E3F0E08081482F8A81282F30E0B8
:1014200081E090E0022E02C0880F991F0A94E2F733
:10143000842B8C939FC0A4E3B0E0E4E3F0E08081D0
:10144000482F8A81282F30E081E090E0022E02C0F0
:10145000880F991F0A94E2F7842B8C938BC0A1E329
:10146000B0E0E1E3F0E08081482F8A81282F30E06E
:1014700081E090E0022E02C0880F991F0A94E2F7E3
:10148000842B8C9377C08B81882309F073C089816A
:10149000282F30E03D832C838C819D818130910504
:1014A00059F12C813D81223031052CF48C819D81B4
:1014B000009769F05FC02C813D812230310589F1B0
:1014C0008C819D818330910509F440C053C0AAE30B
:1014D000B0E0EAE3F0E08081482F8A81282F30E0F5
:1014E00081E090E0022E02C0880F991F0A94E2F773
:1014F000809584238C933EC0A7E3B0E0E7E3F0E05F
:101500008081482F8A81282F30E081E090E0022EF0
:1015100002C0880F991F0A94E2F7809584238C9368
:1015200029C0A4E3B0E0E4E3F0E08081482F8A81A1
:10153000282F30E081E090E0022E02C0880F991F32
:101540000A94E2F7809584238C9314C0A1E3B0E061
:10155000E1E3F0E08081482F8A81282F30E081E0AC
:1015600090E0022E02C0880F991F0A94E2F780953E
:1015700084238C9327960FB6F894DEBF0FBECDBFA1
:10158000CF91DF910895DF93CF9300D000D0CDB7F6
:10159000DEB789836A838981282F30E03C832B83DF
:1015A0008B819C8181309105D1F02B813C8122304F
:1015B00031052CF48B819C81009761F01EC02B813A
:1015C0003C812230310581F08B819C8183309105F3
:1015D00081F013C0EAE3F0E08A8180830EC0E7E384
:1015E000F0E08A81808309C0E4E3F0E08A818083AF
:1015F00004C0E1E3F0E08A8180830F900F900F90A8
:101600000F90CF91DF910895DF93CF9300D000D05A
:10161000CDB7DEB789836A838981282F30E03C8388
:101620002B838B819C8181309105D1F02B813C8172
:10163000223031052CF48B819C81009761F01EC013
:101640002B813C812230310581F08B819C8183305C
:10165000910581F013C0EBE3F0E08A8180830EC036
:10166000E8E3F0E08A81808309C0E5E3F0E08A8165
:10167000808304C0E2E3F0E08A8180830F900F90C2
:101680000F900F90CF91DF910895DF93CF93CDB757
:10169000DEB780E062E00E940509882329F480918A
:1016A00068018F5F8093680180E063E00E94050914
:1016B000882329F4809169018F5F8093690180E01C
:1016C00064E00E940509882329F480916A018F5FF4
:1016D00080936A0180E065E00E940509882329F46F
:1016E00080916B018F5F80936B0180E066E00E94C8
:1016F0000509882329F480916C018F5F80936C0128
:1017000080E067E00E940509882329F480916D013B
:101710008F5F80936D01CF91DF910895DF93CF9319
:10172000CDB7DEB7EBE2F0E080EC8083EAE2F0E0F8
:1017300080E98083E0E4F0E086E88083E9E2F0E09D
:1017400083E38083E0E4F0E01082CF91DF9108959D
:10175000DF93CF930F92CDB7DEB78983EBE2F0E052
:101760008081882F90E080729070959587959595EF
:1017700087959595879595958795959587950097E4
:1017800069F3ECE2F0E089818083EBE2F0E08081B4
:10179000882F90E080749070082E892F000C881F8D
:1017A000990B000C881F991F009779F30F90CF9128
:1017B000DF910895DF93CF9300D00F92CDB7DEB7BE
:1017C0009B838A8319820CC08981882F90E0FC0159
:1017D000E859FE4F80810E94A80B89818F5F898321
:1017E00089818D3088F30F900F900F90CF91DF910A
:1017F00008951F920F920FB60F9211248F93EF93BB
:10180000FF93DF93CF93CDB7DEB7ECE2F0E08081BA
:1018100080937601CF91DF91FF91EF918F910F909F
:101820000FBE0F901F901895DF93CF93CDB7DEB703
:10183000A9E5B0E0E9E5F0E0808184608C93EFE415
:10184000F0E01082AEE4B0E0EEE4F0E08081877F6B
:101850008C93AEE4B0E0EEE4F0E080818F7E8C9378
:10186000AEE4B0E0EEE4F0E0808181608C93AEE421
:10187000B0E0EEE4F0E080818D7F8C93AEE4B0E0E8
:10188000EEE4F0E080818B7F8C93AEE4B0E0EEE498
:10189000F0E080818F7D8C93AEE4B0E0EEE4F0E088
:1018A00080818F778C93ECE4F0E011821082CF91ED
:1018B000DF910895EF92FF920F931F93DF93CF93E1
:1018C000CDB7DEB7CE5BD0400FB6F894DEBF0FBE0B
:1018D000CDBF82E060E041E00E94FD07FE01E554DB
:1018E000FF4F80E090E0A0E2B1E480839183A28387
:1018F000B3838E0109541F4FFE01E554FF4F6081F1
:101900007181828193812BEA3AEA4AE250E40E9493
:101910001F02DC01CB01F80180839183A283B38392
:10192000FE01E954FF4F608171818281938120E043
:1019300030E040E85FE30E942504882334F4FE0190
:10194000EA54FF4F81E08083E0C0FE01E954FF4F7D
:10195000608171818281938120E030E04FE753E420
:101960000E94C50318160CF0C0C0FE01E554FF4FDD
:10197000608171818281938120E030E04AE754E404
:101980000E941903DC01CB01FE01EE54FF4F80835E
:101990009183A283B3838E0102551F4FFE01EE5443
:1019A000FF4F608171818281938120E030E04AEFB6
:1019B00054E40E941F02DC01CB01F8018083918373
:1019C000A283B383FE01E255FF4F60817181828162
:1019D000938120E030E040E85FE30E942504882303
:1019E00044F4FE01E455FF4F81E090E09183808351
:1019F00064C0FE01E255FF4F608171818281938155
:101A000020E03FEF4FE757E40E94C50318160CF0A3
:101A100043C0FE01EE54FF4F60817181828193814A
:101A200020E030E040E251E40E941F02DC01CB01E3
:101A30008E0104551F4FBC01CD010E944900DC01FD
:101A4000CB01F801918380831FC0FE01E655FF4F53
:101A500088EC90E091838083FE01E655FF4F808102
:101A600091810197F1F7FE01E655FF4F9183808345
:101A7000DE01A455BF4FFE01E455FF4F80819181E7
:101A8000019711969C938E93FE01E455FF4F808140
:101A900091810097D1F64BC08E0104551F4FFE0176
:101AA000E255FF4F60817181828193810E944900DC
:101AB000DC01CB01F80191838083DE01A855BF4F83
:101AC000FE01E455FF4F8081918111969C938E9386
:101AD000FE01E855FF4F808191810197F1F7FE01EA
:101AE000E855FF4F9183808322C08E010A541F4F17
:101AF000FE01E954FF4F60817181828193810E94D0
:101B00004900DC01CB01F8018083DE01A955BF4FFC
:101B1000FE01EA54FF4F80818C93FE01E955FF4F8F
:101B200080818A95F1F7FE01E955FF4F808382E0BD
:101B300060E040E00E94FD0781E060E00E9405094E
:101B40008130D1F7ECE4F0E011821082109278013C
:101B50001092770181E060E00E9405098130D1F3A5
:101B6000ECE4F0E0808191817C0100E010E0809164
:101B7000770190917801CC01A0E0B0E02FEF3FEF2A
:101B800040E050E0BC01CD010E941C1ADC01CB01F9
:101B90008E0D9F1DA01FB11F80937B0190937C0130
:101BA000A0937D01B0937E0180917B0190917C0197
:101BB000A0917D01B0917E01BC01CD010E94A904DC
:101BC000DC01CB01BC01CD0124E73CE349EE53E449
:101BD0000E941903DC01CB01BC01CD010E94490028
:101BE000DC01CB0190937A01809379018091790196
:101BF00090917A018730910520F481E080936E0105
:101C000002C010926E01FE01ED55FF4F80E090E0A2
:101C1000A0EFB1E480839183A283B3838E01015648
:101C20001F4FFE01ED55FF4F6081718182819381CD
:101C300020E030E04AEF54E40E941F02DC01CB01B7
:101C4000F80180839183A283B383FE01E156FF4FA5
:101C5000608171818281938120E030E040E85FE320
:101C60000E942504882344F4FE01E356FF4F81E0DF
:101C700090E09183808364C0FE01E156FF4F608154
:101C800071818281938120E03FEF4FE757E40E940A
:101C9000C50318160CF043C0FE01ED55FF4F6081DF
:101CA00071818281938120E030E040E251E40E9422
:101CB0001F02DC01CB018E0103561F4FBC01CD0179
:101CC0000E944900DC01CB01F801918380831FC091
:101CD000FE01E556FF4F88EC90E091838083FE0182
:101CE000E556FF4F808191810197F1F7FE01E5569E
:101CF000FF4F91838083DE01A356BF4FFE01E35661
:101D0000FF4F80819181019711969C938E93FE01E4
:101D1000E356FF4F808191810097D1F627C08E0155
:101D200003561F4FFE01E156FF4F60817181828192
:101D300093810E944900DC01CB01F80191838083EB
:101D4000DE01A756BF4FFE01E356FF4F8081918110
:101D50008D939C93FE01E756FF4F808191810197FF
:101D6000F1F7FE01E756FF4F9183808382E061E047
:101D700041E00E94FD07FE01EB56FF4F80E090E03E
:101D8000A0E2B1E480839183A283B3838E010F56D6
:101D90001F4FFE01EB56FF4F60817181828193815D
:101DA0002BEA3AEA4AE250E40E941F02DC01CB012E
:101DB000F80180839183A283B383FE01EF56FF4F26
:101DC000608171818281938120E030E040E85FE3AF
:101DD0000E942504882334F4FE01E057FF4F81E080
:101DE0008083E0C0FE01EF56FF4F608171818281E8
:101DF000938120E030E04FE753E40E94C5031816BA
:101E00000CF0C0C0FE01EB56FF4F608171818281F2
:101E1000938120E030E04AE754E40E941903DC019A
:101E2000CB01FE01E457FF4F80839183A283B383EC
:101E30008E0108571F4FFE01E457FF4F60817181EB
:101E40008281938120E030E04AEF54E40E941F0237
:101E5000DC01CB01F80180839183A283B383FE016F
:101E6000E857FF4F608171818281938120E030E0EB
:101E700040E85FE30E942504882344F4FE01EA570A
:101E8000FF4F81E090E09183808364C0FE01E857BA
:101E9000FF4F608171818281938120E03FEF4FE7A6
:101EA00057E40E94C50318160CF043C0FE01E45726
:101EB000FF4F608171818281938120E030E040E2B8
:101EC00051E40E941F02DC01CB018E010A571F4F13
:101ED000BC01CD010E944900DC01CB01F8019183D6
:101EE00080831FC0FE01EC57FF4F88EC90E0918388
:101EF0008083FE01EC57FF4F808191810197F1F7BC
:101F0000FE01EC57FF4F91838083DE01AA57BF4F3C
:101F1000FE01EA57FF4F80819181019711969C93B2
:101F20008E93FE01EA57FF4F808191810097D1F691
:101F30004BC08E010A571F4FFE01E857FF4F6081CB
:101F40007181828193810E944900DC01CB01F801FB
:101F500091838083DE01AE57BF4FFE01EA57FF4FEA
:101F60008081918111969C938E93FE01EE57FF4FD5
:101F7000808191810197F1F7FE01EE57FF4F918328
:101F8000808322C08E0100571F4FFE01EF56FF4F86
:101F900060817181828193810E944900DC01CB01C3
:101FA000F8018083DE01AF57BF4FFE01E057FF4FBE
:101FB00080818C93FE01EF57FF4F80818A95F1F766
:101FC000FE01EF57FF4F808382E061E040E00E9416
:101FD000FD0781E061E00E9405098130D1F7ECE462
:101FE000F0E011821082109278011092770181E066
:101FF00061E00E9405098130D1F3ECE4F0E08081DA
:1020000091817C0100E010E080917701909178014E
:10201000CC01A0E0B0E02FEF3FEF40E050E0BC018A
:10202000CD010E941C1ADC01CB018E0D9F1DA01F4B
:10203000B11F80937B0190937C01A0937D01B093AD
:102040007E0180917B0190917C01A0917D01B091F6
:102050007E01BC01CD010E94A904DC01CB01BC01C1
:10206000CD0124E73CE349EE53E40E941903DC016F
:10207000CB01BC01CD010E944900DC01CB01909352
:102080007A01809379018091790190917A0187306A
:10209000910520F481E080936F0102C010926F01DE
:1020A000FE01E358FF4F80E090E0A0EFB1E48083B1
:1020B0009183A283B3838E0107581F4FFE01E3581B
:1020C000FF4F608171818281938120E030E04AEF8F
:1020D00054E40E941F02DC01CB01F801808391834C
:1020E000A283B383FE01E758FF4F60817181828133
:1020F000938120E030E040E85FE30E9425048823DC
:1021000044F4FE01E958FF4F81E090E09183808321
:1021100064C0FE01E758FF4F608171818281938125
:1021200020E03FEF4FE757E40E94C50318160CF07C
:1021300043C0FE01E358FF4F60817181828193812A
:1021400020E030E040E251E40E941F02DC01CB01BC
:102150008E0109581F4FBC01CD010E944900DC01CE
:10216000CB01F801918380831FC0FE01EB58FF4F24
:1021700088EC90E091838083FE01EB58FF4F8081D3
:1021800091810197F1F7FE01EB58FF4F9183808316
:10219000DE01A958BF4FFE01E958FF4F80819181B0
:1021A000019711969C938E93FE01E958FF4F808111
:1021B00091810097D1F627C08E0109581F4FFE016B
:1021C000E758FF4F60817181828193810E944900AD
:1021D000DC01CB01F80191838083DE01AD58BF4F54
:1021E000FE01E958FF4F808191818D939C93FE0100
:1021F000ED58FF4F808191810197F1F7FE01ED5875
:10220000FF4F9183808382E062E041E00E94FD07FE
:10221000FE01E159FF4F80E090E0A0E2B1E480834D
:102220009183A283B3838E0105591F4FFE01E159AB
:10223000FF4F60817181828193812BEA3AEA4AE201
:1022400050E40E941F02DC01CB01F80180839183DE
:10225000A283B383FE01E559FF4F608171818281C2
:10226000938120E030E040E85FE30E94250488236A
:1022700034F4FE01E659FF4F81E08083E0C0FE01A7
:10228000E559FF4F608171818281938120E030E0C8
:102290004FE753E40E94C50318160CF0C0C0FE01BE
:1022A000E159FF4F608171818281938120E030E0AC
:1022B0004AE754E40E941903DC01CB01FE01EA590C
:1022C000FF4F80839183A283B3838E010E591F4FEA
:1022D000FE01EA59FF4F608171818281938120E084
:1022E00030E04AEF54E40E941F02DC01CB01F80108
:1022F00080839183A283B383FE01EE59FF4F6081F7
:1023000071818281938120E030E040E85FE30E94A8
:102310002504882344F4FE01E05AFF4F81E090E059
:102320009183808364C0FE01EE59FF4F608171810B
:102330008281938120E03FEF4FE757E40E94C5037D
:1023400018160CF043C0FE01EA59FF4F60817181FD
:102350008281938120E030E040E251E40E941F023C
:10236000DC01CB018E01005A1F4FBC01CD010E9440
:102370004900DC01CB01F801918380831FC0FE017D
:10238000E25AFF4F88EC90E091838083FE01E25A8D
:10239000FF4F808191810197F1F7FE01E25AFF4FD3
:1023A00091838083DE01A05ABF4FFE01E05AFF4FA8
:1023B00080819181019711969C938E93FE01E05A42
:1023C000FF4F808191810097D1F64BC08E01005A5A
:1023D0001F4FFE01EE59FF4F608171818281938111
:1023E0000E944900DC01CB01F80191838083DE016A
:1023F000A45ABF4FFE01E05AFF4F80819181119690
:102400009C938E93FE01E45AFF4F80819181019746
:10241000F1F7FE01E45AFF4F9183808322C08E01C1
:1024200006591F4FFE01E559FF4F6081718182817E
:1024300093810E944900DC01CB01F8018083DE0119
:10244000A55ABF4FFE01E659FF4F80818C93FE01D4
:10245000E55AFF4F80818A95F1F7FE01E55AFF4F5B
:10246000808382E062E040E00E94FD0781E062E05C
:102470000E9405098130D1F7ECE4F0E0118210826E
:10248000109278011092770181E062E00E940509C4
:102490008130D1F3ECE4F0E0808191817C0100E0B7
:1024A00010E08091770190917801CC01A0E0B0E03C
:1024B0002FEF3FEF40E050E0BC01CD010E941C1A1D
:1024C000DC01CB018E0D9F1DA01FB11F80937B01EE
:1024D00090937C01A0937D01B0937E0180917B015C
:1024E00090917C01A0917D01B0917E01BC01CD0154
:1024F0000E94A904DC01CB01BC01CD0124E73CE32F
:1025000049EE53E40E941903DC01CB01BC01CD016B
:102510000E944900DC01CB0190937A0180937901FC
:102520008091790190917A018730910520F481E0C2
:102530008093700102C010927001FE01E95AFF4FB2
:1025400080E090E0A0EFB1E480839183A283B38325
:102550008E010D5A1F4FFE01E95AFF4F60817181B4
:102560008281938120E030E04AEF54E40E941F0210
:10257000DC01CB01F80180839183A283B383FE0148
:10258000ED5AFF4F608171818281938120E030E0BC
:1025900040E85FE30E942504882344F4FE01EF5ADB
:1025A000FF4F81E090E09183808364C0FE01ED5A8B
:1025B000FF4F608171818281938120E03FEF4FE77F
:1025C00057E40E94C50318160CF043C0FE01E95AF7
:1025D000FF4F608171818281938120E030E040E291
:1025E00051E40E941F02DC01CB018E010F5A1F4FE4
:1025F000BC01CD010E944900DC01CB01F8019183AF
:1026000080831FC0FE01E15BFF4F88EC90E0918367
:102610008083FE01E15BFF4F808191810197F1F79B
:10262000FE01E15BFF4F91838083DE01AF5ABF4F14
:10263000FE01EF5AFF4F80819181019711969C9383
:102640008E93FE01EF5AFF4F808191810097D1F662
:1026500027C08E010F5A1F4FFE01ED5AFF4F6081B8
:102660007181828193810E944900DC01CB01F801D4
:1026700091838083DE01A35BBF4FFE01EF5AFF4FC2
:10268000808191818D939C93FE01E35BFF4F80815C
:1026900091810197F1F7FE01E35BFF4F9183808306
:1026A00082E063E041E00E94FD07FE01E75BFF4F2F
:1026B00080E090E0A0E2B1E480839183A283B383C1
:1026C0008E010B5B1F4FFE01E75BFF4F6081718145
:1026D000828193812BEA3AEA4AE250E40E941F0287
:1026E000DC01CB01F80180839183A283B383FE01D7
:1026F000EB5BFF4F608171818281938120E030E04C
:1027000040E85FE30E942504882334F4FE01EC5B7B
:10271000FF4F81E08083A7C0FE01EB5BFF4F60812C
:1027200071818281938120E030E04FE753E40E9481
:10273000C50318160CF087C0FE01E75BFF4F6081F0
:1027400071818281938120E030E04AE754E40E9465
:102750001903DC01CB01FE01E05CFF4F8083918314
:10276000A283B383FE01E05CFF4F608171818281AF
:10277000938120E030E04AEF54E40E941F02DC0124
:10278000CB018CAF9DAFAEAFBFAF6CAD7DAD8EADAD
:102790009FAD20E030E040E85FE30E9425048823FD
:1027A0002CF481E090E09BAF8AAF42C06CAD7DAD70
:1027B0008EAD9FAD20E03FEF4FE757E40E94C50389
:1027C000181664F5FE01E05CFF4F60817181828123
:1027D000938120E030E040E251E40E941F02DC01DE
:1027E000CB01BC01CD010E944900DC01CB019BAFB4
:1027F0008AAF0FC088EC90E099AF88AF88AD99ADF3
:102800000197F1F799AF88AF8AAD9BAD01979BAF68
:102810008AAF8AAD9BAD009769F72EC06CAD7DADD8
:102820008EAD9FAD0E944900DC01CB019BAF8AAF0A
:102830008AAD9BAD9FAB8EAB8EA99FA90197F1F797
:102840009FAB8EAB19C08E010C5B1F4FFE01EB5B83
:10285000FF4F60817181828193810E944900DC0178
:10286000CB01F8018083FE01EC5BFF4F80818DABD3
:102870008DA98A95F1F78DAB82E063E040E00E947C
:10288000FD0782E065E00E9405098130D1F7ECE4A4
:10289000F0E011821082109278011092770182E0AC
:1028A00065E00E9405098130D1F3ECE4F0E080811D
:1028B00091817C0100E010E0809177019091780196
:1028C000CC01A0E0B0E02FEF3FEF40E050E0BC01D2
:1028D000CD010E941C1ADC01CB018E0D9F1DA01F93
:1028E000B11F80937B0190937C01A0937D01B093F5
:1028F0007E0180917B0190917C01A0917D01B0913E
:102900007E01BC01CD010E94A904DC01CB01BC0108
:10291000CD0124E73CE349EE53E40E941903DC01B6
:10292000CB01BC01CD010E944900DC01CB01909399
:102930007A01809379018091790190917A018730B1
:10294000910520F481E08093710102C01092710121
:1029500080E090E0A0EFB1E489AB9AABABABBCAB4D
:1029600069A97AA98BA99CA920E030E04AEF54E438
:102970000E941F02DC01CB018DA79EA7AFA7B8ABB9
:102980006DA57EA58FA598A920E030E040E85FE323
:102990000E94250488232CF481E090E09CA78BA75B
:1029A0003FC06DA57EA58FA598A920E03FEF4FE71A
:1029B00057E40E94C50318164CF569A97AA98BA99A
:1029C0009CA920E030E040E251E40E941F02DC01BB
:1029D000CB01BC01CD010E944900DC01CB019CA7C9
:1029E0008BA70FC088EC90E09AA789A789A59AA524
:1029F0000197F1F79AA789A78BA59CA501979CA79A
:102A00008BA78BA59CA5009769F714C06DA57EA523
:102A10008FA598A90E944900DC01CB019CA78BA738
:102A20008BA59CA598A78FA38FA198A50197F1F7D7
:102A300098A78FA382E064E041E00E94FD0780E058
:102A400090E0A0E2B1E48BA39CA3ADA3BEA36BA1D5
:102A50007CA18DA19EA12BEA3AEA4AE250E40E94B1
:102A60001F02DC01CB018F8F98A3A9A3BAA36F8D9E
:102A700078A189A19AA120E030E040E85FE30E94BC
:102A8000250488231CF481E08E8F91C06F8D78A17E
:102A900089A19AA120E030E04FE753E40E94C503EA
:102AA00018160CF07BC06BA17CA18DA19EA120E02B
:102AB00030E04AE754E40E941903DC01CB018A8F1D
:102AC0009B8FAC8FBD8F6A8D7B8D8C8D9D8D20E013
:102AD00030E04AEF54E40E941F02DC01CB018E8BF0
:102AE0009F8BA88FB98F6E897F89888D998D20E003
:102AF00030E040E85FE30E94250488232CF481E065
:102B000090E09D8B8C8B3FC06E897F89888D998DDD
:102B100020E03FEF4FE757E40E94C50318164CF53D
:102B20006A8D7B8D8C8D9D8D20E030E040E251E4FC
:102B30000E941F02DC01CB01BC01CD010E944900B3
:102B4000DC01CB019D8B8C8B0FC088EC90E09B8BC4
:102B50008A8B8A899B890197F1F79B8B8A8B8C8959
:102B60009D8901979D8B8C8B8C899D89009769F736
:102B700024C06E897F89888D998D0E944900DC016F
:102B8000CB019D8B8C8B8C899D89998B888B8889B7
:102B900099890197F1F7998B888B0FC06F8D78A178
:102BA00089A19AA10E944900DC01CB018E8F8E8DF4
:102BB0008F878F858A95F1F78F8782E064E040E008
:102BC0000E94FD0781E064E00E9405098130D1F791
:102BD000ECE4F0E01182108281E064E00E940509DB
:102BE0008130D1F3ECE4F0E0808191817C0100E060
:102BF00010E08091770190917801CC01A0E0B0E0E5
:102C00002FEF3FEF40E050E0BC01CD010E941C1AC5
:102C1000DC01CB018E0D9F1DA01FB11F80937B0196
:102C200090937C01A0937D01B0937E0180917B0104
:102C300090917C01A0917D01B0917E01BC01CD01FC
:102C40000E94A904DC01CB01BC01CD0124E73CE3D7
:102C500049EE53E40E941903DC01CB01BC01CD0114
:102C60000E944900DC01CB0190937A0180937901A5
:102C70008091790190917A018730910520F481E06B
:102C80008093720102C01092720180E090E0A0EF88
:102C9000B1E48B879C87AD87BE876B857C858D85EE
:102CA0009E8520E030E04AEF54E40E941F02DC01E0
:102CB000CB018F839887A987BA876F8178858985AB
:102CC0009A8520E030E040E85FE30E9425048823F5
:102CD0002CF481E090E09E838D833FC06F817885E6
:102CE00089859A8520E03FEF4FE757E40E94C503AE
:102CF00018164CF56B857C858D859E8520E030E02F
:102D000040E251E40E941F02DC01CB01BC01CD0175
:102D10000E944900DC01CB019E838D830FC088ECAB
:102D200090E09C838B838B819C810197F1F79C833E
:102D30008B838D819E8101979E838D838D819E8162
:102D4000009769F714C06F81788589859A850E94FC
:102D50004900DC01CB019E838D838D819E819A8306
:102D6000898389819A810197F1F79A838983C25473
:102D7000DF4F0FB6F894DEBF0FBECDBFCF91DF910E
:102D80001F910F91FF90EF9008951F920F920FB631
:102D90000F9211248F939F93DF93CF93CDB7DEB71C
:102DA00080917701909178010196909378018093BA
:102DB0007701CF91DF919F918F910F900FBE0F9070
:102DC0001F9018951F920F920FB60F9211242F93F8
:102DD0003F934F935F936F937F938F939F93AF93A3
:102DE000BF93EF93FF93DF93CF93CDB7DEB783E02D
:102DF00067E041E00E94FD0781E080937301CF917D
:102E0000DF91FF91EF91BF91AF919F918F917F9152
:102E10006F915F914F913F912F910F900FBE0F9047
:102E20001F901895DF93CF93CDB7DEB76F970FB68E
:102E3000F894DEBF0FBECDBF81E060E040E00E94AD
:102E4000BB0981E061E040E00E94BB0981E062E0F3
:102E500040E00E94BB0981E064E040E00E94BB09C1
:102E600082E060E041E00E94BB0982E061E041E075
:102E70000E94BB0982E062E041E00E94BB0982E05F
:102E800063E041E00E94BB0982E064E041E00E940F
:102E9000BB0982E065E040E00E94BB0983E060E09E
:102EA00041E00E94BB0983E063E041E00E94BB096E
:102EB00083E064E041E00E94BB0983E065E041E01B
:102EC0000E94BB0983E066E041E00E94BB0983E009
:102ED00062E040E00E94BB0983E067E041E00E94BD
:102EE000BB0980E062E040E00E94BB0980E063E053
:102EF00040E00E94BB0980E064E040E00E94BB0922
:102F000080E065E040E00E94BB0980E066E040E0D0
:102F10000E94BB0980E067E040E00E94BB0982E0BC
:102F200067E041E00E94BB0980E061E040E00E9470
:102F3000BB0981E063E041E00E94BB0980E060E002
:102F400040E00E94BB0982E066E041E00E94BB09CC
:102F5000ABE5B0E0EBE5F0E0808180648C93A5E523
:102F6000B0E0E5E5F0E0808181608C93A5E5B0E01C
:102F7000E5E5F0E0808182608C9381E065E041E0EE
:102F80000E94BB0981E066E041E00E94BB0981E04C
:102F900066E040E00E94FD070E94140C0E941707A3
:102FA0000E945D070E948E0BAFE5B0E0EFE5F0E018
:102FB000808180688C9383E067E040E00E94FD0799
:102FC0001D8E0E94BB070E945A0C88E691E00E9469
:102FD000DA0B1F8E1E8E18C00E941B190E94450B13
:102FE00007C080917301813019F481E08D8F04C096
:102FF000809176018823A9F78D8D813059F08E8DCF
:103000009F8D01969F8F8E8F8E8D9F8D26E08034B1
:10301000920710F38D8D813009F085C088E691E02C
:103020000E94DA0B1F8E1E8E77C080E090E4ACE920
:10303000B5E4898F9A8FAB8FBC8F698D7A8D8B8D1C
:103040009C8D20E030E04AEF54E40E941F02DC0136
:10305000CB018D8B9E8BAF8BB88F6D897E898F89CD
:10306000988D20E030E040E85FE30E94250488234B
:103070002CF481E090E09C8B8B8B3FC06D897E8926
:103080008F89988D20E03FEF4FE757E40E94C503FA
:1030900018164CF5698D7A8D8B8D9C8D20E030E073
:1030A00040E251E40E941F02DC01CB01BC01CD01D2
:1030B0000E944900DC01CB019C8B8B8B0FC088ECFC
:1030C00090E09A8B898B89899A890197F1F79A8B7D
:1030D000898B8B899C8901979C8B8B8B8B899C8995
:1030E000009769F714C06D897E898F89988D0E9439
:1030F0004900DC01CB019C8B8B8B8B899C89988B45
:103100008F878F8598890197F1F7988B8F878E8DA0
:103110009F8D01969F8F8E8F8E8D9F8D8C30910508
:1031200008F483CF1D8E0E94450B0E945A0C0E940A
:10313000BB070E94450B88E691E00E94DA0B80E015
:1031400090E4ACE9B5E48B879C87AD87BE876B853F
:103150007C858D859E8520E030E04AEF54E40E9416
:103160001F02DC01CB018F839887A987BA876F8103
:10317000788589859A8520E030E040E85FE30E9409
:10318000250488232CF481E090E09E838D833FC04A
:103190006F81788589859A8520E03FEF4FE757E476
:1031A0000E94C50318164CF56B857C858D859E8520
:1031B00020E030E040E251E40E941F02DC01CB013C
:1031C000BC01CD010E944900DC01CB019E838D83AF
:1031D0000FC088EC90E09C838B838B819C8101974E
:1031E000F1F79C838B838D819E8101979E838D83D4
:1031F0008D819E81009769F714C06F8178858985DC
:103200009A850E944900DC01CB019E838D838D81CC
:103210009E819A83898389819A810197F1F79A83A4
:10322000898388E691E00E94DA0B83E067E040E062
:103230000E94FD07C6CEDF93CF93CDB7DEB76C9764
:103240000FB6F894DEBF0FBECDBF81E065E041E070
:103250000E94FD0780E090E0A0E8BFE3898F9A8F8D
:10326000AB8FBC8F698D7A8D8B8D9C8D20E030E08B
:103270004AEF54E40E941F02DC01CB018D8B9E8B30
:10328000AF8BB88F6D897E898F89988D20E030E073
:1032900040E85FE30E94250488232CF481E090E05D
:1032A0009C8B8B8B3FC06D897E898F89988D20E0A8
:1032B0003FEF4FE757E40E94C50318164CF5698DA0
:1032C0007A8D8B8D9C8D20E030E040E251E40E94AD
:1032D0001F02DC01CB01BC01CD010E944900DC01D1
:1032E000CB019C8B8B8B0FC088EC90E09A8B898BE9
:1032F00089899A890197F1F79A8B898B8B899C89A7
:1033000001979C8B8B8B8B899C89009769F714C0E4
:103310006D897E898F89988D0E944900DC01CB01DF
:103320009C8B8B8B8B899C89988B8F878F859889B9
:103330000197F1F7988B8F8781E065E040E00E946C
:10334000FD0780E090E0A0E8BFE38B879C87AD8716
:10335000BE876B857C858D859E8520E030E04AEFB9
:1033600054E40E941F02DC01CB018F839887A98758
:10337000BA876F81788589859A8520E030E040E8BA
:103380005FE30E94250488232CF481E090E09E8373
:103390008D833FC06F81788589859A8520E03FEFD6
:1033A0004FE757E40E94C50318164CF56B857C85E2
:1033B0008D859E8520E030E040E251E40E941F02AE
:1033C000DC01CB01BC01CD010E944900DC01CB0135
:1033D0009E838D830FC088EC90E09C838B838B81D0
:1033E0009C810197F1F79C838B838D819E8101974E
:1033F0009E838D838D819E81009769F714C06F81B4
:10340000788589859A850E944900DC01CB019E83DD
:103410008D838D819E819A83898389819A81019789
:10342000F1F79A8389836C960FB6F894DEBF0FBECE
:10343000CDBFCF91DF910895629FD001739FF001BE
:10344000829FE00DF11D649FE00DF11D929FF00D34
:10345000839FF00D749FF00D659FF00D9927729F6B
:10346000B00DE11DF91F639FB00DE11DF91FBD01F6
:10347000CF0111240895AA1BBB1B51E107C0AA1F4D
:10348000BB1FA617B70710F0A61BB70B881F991F05
:103490005A95A9F780959095BC01CD0108952F927A
:1034A0003F924F925F926F927F928F929F92AF92D4
:1034B000BF92CF92DF92EF92FF920F931F93CF9321
:1034C000DF93CDB7DEB7CA1BDB0B0FB6F894DEBFB8
:1034D0000FBECDBF09942A88398848885F846E84DE
:1034E0007D848C849B84AA84B984C884DF80EE8028
:1034F000FD800C811B81AA81B981CE0FD11D0FB631
:10350000F894DEBF0FBECDBFED010895F894FFCF54
:10351000000000000000000000010202030303039A
:103520000404040404040404050505050505050553
:103530000505050505050505060606060606060633
:10354000060606060606060606060606060606061B
:103550000606060606060606070707070707070703
:1035600007070707070707070707070707070707EB
:1035700007070707070707070707070707070707DB
:1035800007070707070707070707070707070707CB
:1035900007070707070707070808080808080808B3
:1035A000080808080808080808080808080808089B
:1035B000080808080808080808080808080808088B
:1035C000080808080808080808080808080808087B
:1035D000080808080808080808080808080808086B
:1035E000080808080808080808080808080808085B
:1035F000080808080808080808080808080808084B
:10360000080808080808080808080808080808083A
:08361000080808080808080872
:00000001FF
